S010000050726F6A656374322E737265630B
S11300000C9443000C9460000C9460000C94600009
S11300100C9460000C9460000C9460000C946000DC
S11300200C9460000C9460000C9460000C946000CC
S11300300C9460000C9460000C94C0000C9460005C
S11300400C9460000C9460000C9460000C946000AC
S11300500C9460000C9460000C9460000C9460009C
S11300600C9460000C94600005A84CCDB2D44EB939
S11300703836A9020C50B9918688083CA6AAAA2A47
S1130080BE000000803F11241FBECFEFD8E0DEBFCA
S1130090CDBF11E0A0E0B1E0EAEEFAE002C00590C5
S11300A00D92A230B107D9F724E0A2E0B1E001C07B
S11300B01D92A732B207E1F70E94B4000C947305B5
S11300C00C94000080E58CBD1DBC84E085B90895C6
S11300D082E084BD9091000197BD85BD85BB80936E
S11300E06E00089584B18C6284B95698529A8BB18B
S11300F0806C8BB90E9462000E9468007894089515
S11301002A989F7090679EBD0DB407FEFDCF8EBDEB
S11301100DB407FEFDCF2A9A0895CF92DF92EF9295
S1130120FF9220E030E040EA50E40E94170320E010
S113013030EF4FE755E40E9452046B017C0120E04C
S113014030EF4FE755E40E944D04181634F0C70110
S1130150B6010E949003CB0102C08FEF9FE0FF9095
S1130160EF90DF90CF90089584E690E0909304019F
S1130170809303010E9472000E949B025A9AFECF50
S11301801F920F920FB60F9211242F933F934F9308
S11301905F936F937F938F939F93AF93BF93EF93EB
S11301A0FF93E0910201F0E0EE0FFF1F8091250420
S11301B090912604E80FF91F808191810E948000AC
S11301C0809102018F5F8093020190E020910301EE
S11301D0309104018217930714F010920201FF91E9
S11301E0EF91BF91AF919F918F917F916F915F91AB
S11301F04F913F912F910F900FBE0F901F90189524
S1130200EF92FF920F931F93CF93DF9360910301BB
S113021070910401072E000C880B990B0E94C103F6
S113022020E030E048E452E40E94520420E030E050
S113023048EC52E40E9417030E948903EB011C1648
S11302401D06B4F40DE513E0660F771FCB01835A46
S11302509C4F7C0160E070E080EA90E40E948D0095
S1130260F801819391938F01EE15FF0599F702C070
S1130270C0E0D0E08091030190910401C817D90730
S1130280B4F48E01000F111F035A1C4F60E070E09C
S1130290CB010E948D00F801819391938F012196E7
S11302A08091030190910401C817D9077CF3DF9171
S11302B0CF911F910F91FF90EF9008954F925F920D
S11302C06F927F92AF92BF92CF92DF92EF92FF92A2
S11302D00F931F93CF93DF93A0900301B090040179
S11302E0BB201CF42FEFA21AB20AB594A794B5014F
S11302F00B2C000C880B990B0E94C1039B01AC01D1
S113030060E070E080EA90E40E9417032B013C0156
S11303109B01AC0160E070E0CB010E94AA026B017A
S11303207C01E50121961C161D06DCF405E912E0AA
S1130330C501880F991FFC01E956FD4F5F01A30118
S11303409201C701B6010E94AB026B017C010E94BD
S11303508D00F801819391938F01EA15FB0579F7DC
S113036002C0C0E0D0E080910301909104010197A4
S1130370C817D907E4F48E01000F111F0B561D4F47
S1130380A3019201C701B6010E94AA026B017C017C
S11303900E948D00F801819391938F0121968091A1
S11303A00301909104010197C817D9074CF3DF9119
S11303B0CF911F910F91FF90EF90DF90CF90BF905E
S11303C0AF907F906F905F904F9008958F929F921F
S11303D0AF92BF92CF92DF92EF92FF920F931F934F
S11303E0CF93DF93C0910301D0910401BE0161500A
S11303F07109072E000C880B990B0E94C1039B0105
S1130400AC0160E070E080EA90E40E9417034B01C5
S11304105C019B01AC0160E070E0CB010E94AA0288
S11304206B017C011C161D06D4F40DEC11E0C0E038
S1130430D0E0A5019401C701B6010E94AB026B0193
S11304407C010E948D00F801819391938F01219684
S11304508091030190910401C817D90754F3DF91E7
S1130460CF911F910F91FF90EF90DF90CF90BF90AD
S1130470AF909F908F9008958F929F92AF92BF926A
S1130480CF92DF92EF92FF920F931F93CF93DF935C
S1130490C0910301D0910401BE010D2E000C880B04
S11304A0990B0E94C1039B01AC016BED7FE089ECC9
S11304B090E40E9417034B015C016B017C01F7FA85
S11304C0F094F7F8F0941C161D0644F505E011E0CD
S11304D0C0E0D0E0A5019401C701B6010E94AB02BF
S11304E06B017C010E94BF0420E030E040E250E454
S11304F00E94520420E030E040E250E40E94AB024B
S11305000E948D00F801819391938F01219680912F
S1130510030190910401C817D907E4F2DF91CF9148
S11305201F910F91FF90EF90DF90CF90BF90AF900D
S11305309F908F9008950E9400010E945E010E9486
S1130540E6010E943C028DE593E09093260480939B
S1130550250408955058BB27AA270E94C2020C9470
S113056013040E94050438F00E940C0420F039F4AE
S11305709F3F19F426F40C9402040EF4E095E7FB73
S11305800C94FC03E92F0E94240458F3BA17620761
S113059073078407950720F079F4A6F50C944604B4
S11305A00EF4E0950B2EBA2FA02D0B01B90190018A
S11305B00C01CA01A0011124FF27591B99F0593FCE
S11305C050F4503E68F11A16F040A22F232F342F16
S11305D04427585FF3CF469537952795A795F04064
S11305E05395C9F77EF41F16BA0B620B730B840B79
S11305F0BAF09150A1F0FF0FBB1F661F771F881F31
S1130600C2F70EC0BA0F621F731F841F48F4879588
S113061077956795B795F7959E3F08F0B0CF93957A
S1130620880F08F09927EE0F9795879508950E94F3
S11306302B030C9413040E940C0458F00E9405042C
S113064040F029F45F3F29F00C94FC0351110C9401
S113065047040C9402040E94240468F39923B1F320
S1130660552391F3951B550BBB27AA2762177307D4
S1130670840738F09F5F5F4F220F331F441FAA1F68
S1130680A9F335D00E2E3AF0E0E832D09150504024
S1130690E695001CCAF72BD0FE2F29D0660F771FD2
S11306A0881FBB1F261737074807AB07B0E809F0B8
S11306B0BB0B802DBF01FF2793585F4F3AF09E3F3D
S11306C0510578F00C94FC030C9447045F3FE4F369
S11306D0983ED4F3869577956795B795F7959F5F80
S11306E0C9F7880F911D9695879597F90895E1E0CC
S11306F0660F771F881FBB1F621773078407BA072B
S113070020F0621B730B840BBA0BEE1F88F7E09585
S113071008950E9490036894B1110C9447040895BD
S11307200E942C0488F09F5798F0B92F9927B7514D
S1130730B0F0E1F0660F771F881F991F1AF0BA9581
S1130740C9F714C0B13091F00E944604B1E0089595
S11307500C944604672F782F8827B85F39F0B93F87
S1130760CCF3869577956795B395D9F73EF4909534
S11307708095709561957F4F8F4F9F4F0895E894B2
S113078009C097FB3EF490958095709561957F4FD5
S11307908F4F9F4F9923A9F0F92F96E9BB27939583
S11307A0F695879577956795B795F111F8CFFAF493
S11307B0BB0F11F460FF1BC06F5F7F4F8F4F9F4FC4
S11307C016C0882311F096E911C0772321F09EE822
S11307D0872F762F05C0662371F096E8862F70E088
S11307E060E02AF09A95660F771F881FDAF7880F62
S11307F09695879597F9089597F99F6780E870E033
S113080060E008959FEF80EC089500240A94161682
S1130810170618060906089500240A9412161306EA
S1130820140605060895092E0394000C11F4882378
S113083052F0BB0F40F4BF2B11F460FF04C06F5F94
S11308407F4F8F4F9F4F089557FD9058440F551F6A
S113085059F05F3F71F04795880F97FB991F61F03E
S11308609F3F79F087950895121613061406551FB5
S1130870F2CF4695F1DF08C0161617061806991F21
S1130880F1CF86957105610508940895E894BB2716
S113089066277727CB0197F908950E94C70408F4C7
S11308A08FEF08950E9465040C9413040E940504BC
S11308B038F00E940C0420F0952311F00C94FC03F2
S11308C00C94020411240C9447040E94240470F331
S11308D0959FC1F3950F50E0551F629FF001729FE1
S11308E0BB27F00DB11D639FAA27F00DB11DAA1FF0
S11308F0649F6627B00DA11D661F829F2227B00D3D
S1130900A11D621F739FB00DA11D621F839FA00DC7
S1130910611D221F749F3327A00D611D231F849F17
S1130920600D211D822F762F6A2F11249F5750406E
S11309309AF0F1F088234AF0EE0FFF1FBB1F661FE9
S1130940771F881F91505040A9F79E3F510580F0B2
S11309500C94FC030C9447045F3FE4F3983ED4F3F7
S1130960869577956795B795F795E7959F5FC1F756
S1130970FE2B880F911D9695879597F908959F935F
S11309800E94ED040F9007FCEE5F0C941605990F7E
S11309900008550FAA0BE0E8FEEF16161706E80745
S11309A0F907C0F012161306E407F50798F0621B66
S11309B0730B840B950B39F40A2661F0232B242B3B
S11309C0252B21F408950A2609F4A140A6958FEF5A
S11309D0811D811D08950C9402040E942C04D8F3F7
S11309E0E894E0E0BB279F57F0F02AED3FE049ECA4
S11309F006C0EE0FBB0F661F771F881F28F0B23AA0
S1130A0062077307840728F0B25A620B730B840BD6
S1130A10E3959A9572F7803830F49A95BB0F661F68
S1130A20771F881FD2F790480C942C05EF93E0FFB2
S1130A3007C0A2EA2AED3FE049EC5FEB0E94C20244
S1130A400E9413040F90039401FC9058E8E6F0E030
S1130A500C9438059F3F31F0915020F48795779599
S1130A606795B795880F911D9695879597F9089581
S1130A709F938F937F936F93FF93EF939B01AC01AD
S1130A800E945204EF91FF910E944C052F913F91D7
S1130A904F915F910C945204DF93CF931F930F9364
S1130AA0FF92EF92DF927B018C01689406C0DA2EEC
S1130AB0EF010E946504FE01E894A591259135910A
S1130AC045915591A6F3EF010E94C202FE019701E0
S1130AD0A801DA9469F7DF90EF90FF900F911F91CE
S10D0AE0CF91DF910895F894FFCF41
S1050AEAC8003E
S9030000FC
