S010000050726F6A656374322E737265630B
S11300000C9443000C9460000C9460000C94600009
S11300100C9460000C9460000C9460000C946000DC
S11300200C9460000C9460000C9460000C946000CC
S11300300C9460000C9460000C94FC000C94600020
S11300400C9460000C9460000C9460000C946000AC
S11300500C9460000C9460000C9460000C9460009C
S11300600C9460000C94600005A84CCDB2D44EB939
S11300703836A9020C50B9918688083CA6AAAA2A47
S1130080BE000000803F11241FBECFEFD8E0DEBFCA
S1130090CDBF11E0A0E0B1E0E2E1FCE002C00590D8
S11300A00D92A031B107D9F725E0A0E1B1E001C07C
S11300B01D92A63CB207E1F70E94EB000C940706E0
S11300C00C94000080E58CBD1DBC84E085B90895C6
S11300D082E084BD9091020197BD85BD85BB80936C
S11300E06E00089584B18C6284B98AB18AB9529A37
S11300F08BB1806E8BB90E9462000E946800789474
S1130100089541E050E002C0440F551F8A95E2F77C
S113011029E060E030E089B190E084239523892BC5
S113012011F43F5F01C06F5F80EA8A95F1F72150B7
S113013091F781E0631708F080E0089587E090E08C
S11301400E94810081110DC086E090E00E94810030
S1130150811109C085E090E00E948100811105C0F1
S1130160089581E0089582E0089583E008952A982F
S11301709F7090679EBD0DB407FEFDCF8EBD0DB47C
S113018007FEFDCF2A9A0895CF92DF92EF92FF9255
S113019020E030E040EA50E40E94830320E030EFA6
S11301A04FE755E40E94BE046B017C0120E030EF70
S11301B04FE755E40E94B904181634F0C701B6019C
S11301C00E94FC03CB0102C08FEF9FE0FF90EF90F1
S11301D0DF90CF90089586E990E090931301809387
S11301E012010E9472000E9407030E949E0088234D
S11301F0E1F30E942201F9CF1F920F920FB60F92E2
S113020011242F933F934F935F936F937F938F9317
S11302109F93AF93BF93EF93FF930E943F010E947C
S1130220B700FF91EF91BF91AF919F918F917F9113
S11302306F915F914F913F912F910F900FBE0F904F
S11302401F9018958091100190911101019683706F
S11302509078992324F401978C6F9F6F0196909363
S1130260110180931001880F991FFC01E95FFE4F73
S1130270808191819093C5058093C4050895209150
S11302800301309104018091000190910101820FDA
S1130290931F66E970E00E94DF0590930401809348
S11302A00301880F991FE091C405F091C505E80F7B
S11302B0F91F808191810895CF92DF92EF92FF928E
S11302C00F931F93CF93DF936091120170911301E9
S11302D0072E000C880B990B0E942D046B017C01E6
S11302E08091050190910601BC01990F880B990B2F
S11302F00E942D049B01AC01C701B6010E94BE04FB
S113030020E030E048EC52E40E9483030E94F503AD
S1130310EB011C161D06B4F408E914E0660F771F00
S1130320CB0188569B4F7C0160E070E080EA90E44A
S11303300E94C400F801819391938F01EE15FF058B
S113034099F702C0C0E0D0E08091120190911301AE
S1130350C817D907B4F48E01000F111F08561B4F9C
S113036060E070E0CB010E94C400F8018193919396
S11303708F0121968091120190911301C817D9071A
S11303807CF3DF91CF911F910F91FF90EF90DF905D
S1130390CF9008954F925F926F927F92AF92BF92E7
S11303A0CF92DF92EF92FF920F931F93CF93DF933D
S11303B0A0901201B0901301BB201CF42FEFA21ADD
S11303C0B20AB594A794B5010B2C000C880B990BB9
S11303D00E942D049B01AC0160E070E080EA90E48F
S11303E00E9483032B013C019B01AC0160E070E09F
S11303F0CB010E9416036B017C01E50121961C16BA
S11304001D06DCF40CE613E0C501880F991FFC01FE
S1130410E259FC4F5F01A3019201C701B6010E949A
S113042017036B017C010E94C400F801819391932E
S11304308F01EA15FB0579F702C0C0E0D0E0809196
S11304401201909113010197C817D907E4F48E01A2
S1130450000F111F04591C4FA3019201C701B601DB
S11304600E9416036B017C010E94C400F801819371
S113047091938F012196809112019091130101971C
S1130480C817D9074CF3DF91CF911F910F91FF90BB
S1130490EF90DF90CF90BF90AF907F906F905F9080
S11304A04F9008958F929F92AF92BF92CF92DF9216
S11304B0EF92FF920F931F93CF93DF93C09112019A
S11304C0D0911301BE0161507109072E000C880BF5
S11304D0990B0E942D049B01AC0160E070E080EA5E
S11304E090E40E9483034B015C019B01AC0160E03A
S11304F070E0CB010E9416036B017C011C161D06E3
S1130500D4F400E412E0C0E0D0E0A5019401C701F6
S1130510B6010E9417036B017C010E94C400F8011C
S1130520819391938F0121968091120190911301EF
S1130530C817D90754F3DF91CF911F910F91FF9002
S1130540EF90DF90CF90BF90AF909F908F900895E1
S11305508F929F92AF92BF92CF92DF92EF92FF92CF
S11305600F931F93CF93DF93C0911201D091130186
S1130570BE010D2E000C880B990B0E942D049B01CB
S1130580AC016BED7FE089EC90E40E9483034B01A6
S11305905C016B017C01F7FAF094F7F8F0941C16F7
S11305A01D0644F504E111E0C0E0D0E0A50194018A
S11305B0C701B6010E9417036B017C010E942B0541
S11305C020E030E040E250E40E94BE0420E030E04D
S11305D040E250E40E9417030E94C400F801819392
S11305E091938F0121968091120190911301C81764
S11305F0D907E4F2DF91CF911F910F91FF90EF9013
S1130600DF90CF90BF90AF909F908F9008950E94FD
S11306105C010E94CA010E9452020E94A80288E959
S113062094E09093C5058093C40508955058BB2762
S1130630AA270E942E030C947F040E94710438F0B0
S11306400E94780420F039F49F3F19F426F40C94A6
S11306506E040EF4E095E7FB0C946804E92F0E9405
S1130660900458F3BA17620773078407950720F0BC
S113067079F4A6F50C94B2040EF4E0950B2EBA2F7F
S1130680A02D0B01B90190010C01CA01A001112494
S1130690FF27591B99F0593F50F4503E68F11A1640
S11306A0F040A22F232F342F4427585FF3CF4695D1
S11306B037952795A795F0405395C9F77EF41F16F3
S11306C0BA0B620B730B840BBAF09150A1F0FF0FBD
S11306D0BB1F661F771F881FC2F70EC0BA0F621FA9
S11306E0731F841F48F4879577956795B795F79599
S11306F09E3F08F0B0CF9395880F08F09927EE0F2E
S11307009795879508950E9497030C947F040E94FF
S1130710780458F00E94710440F029F45F3F29F0F6
S11307200C94680451110C94B3040C946E040E944C
S1130730900468F39923B1F3552391F3951B550B5A
S1130740BB27AA2762177307840738F09F5F5F4FA0
S1130750220F331F441FAA1FA9F335D00E2E3AF0DF
S1130760E0E832D091505040E695001CCAF72BD0F7
S1130770FE2F29D0660F771F881FBB1F2617370748
S11307804807AB07B0E809F0BB0B802DBF01FF277A
S113079093585F4F3AF09E3F510578F00C946804EB
S11307A00C94B3045F3FE4F3983ED4F386957795B5
S11307B06795B795F7959F5FC9F7880F911D969533
S11307C0879597F90895E1E0660F771F881FBB1F8F
S11307D0621773078407BA0720F0621B730B840B3C
S11307E0BA0BEE1F88F7E09508950E94FC03689405
S11307F0B1110C94B30408950E94980488F09F5793
S113080098F0B92F9927B751B0F0E1F0660F771F30
S1130810881F991F1AF0BA95C9F714C0B13091F026
S11308200E94B204B1E008950C94B204672F782FAB
S11308308827B85F39F0B93FCCF3869577956795EB
S1130840B395D9F73EF490958095709561957F4F57
S11308508F4F9F4F0895E89409C097FB3EF49095FD
S11308608095709561957F4F8F4F9F4F9923A9F085
S1130870F92F96E9BB279395F69587957795679514
S1130880B795F111F8CFFAF4BB0F11F460FF1BC058
S11308906F5F7F4F8F4F9F4F16C0882311F096E9EB
S11308A011C0772321F09EE8872F762F05C0662399
S11308B071F096E8862F70E060E02AF09A95660F52
S11308C0771F881FDAF7880F9695879597F908950B
S11308D097F99F6780E870E060E008959FEF80ECEF
S11308E0089500240A941616170618060906089592
S11308F000240A9412161306140605060895092EF8
S11309000394000C11F4882352F0BB0F40F4BF2B66
S113091011F460FF04C06F5F7F4F8F4F9F4F0895A6
S113092057FD9058440F551F59F05F3F71F047959C
S1130930880F97FB991F61F09F3F79F08795089581
S1130940121613061406551FF2CF4695F1DF08C0A0
S1130950161617061806991FF1CF869571056105BD
S113096008940895E894BB2766277727CB0197F965
S113097008950E94330508F48FEF08950E94D1046E
S11309800C947F040E94710438F00E94780420F0D3
S1130990952311F00C9468040C946E0411240C94A7
S11309A0B3040E94900470F3959FC1F3950F50E037
S11309B0551F629FF001729FBB27F00DB11D639F0D
S11309C0AA27F00DB11DAA1F649F6627B00DA11DB3
S11309D0661F829F2227B00DA11D621F739FB00D59
S11309E0A11D621F839FA00D611D221F749F3327C9
S11309F0A00D611D231F849F600D211D822F762F62
S1130A006A2F11249F5750409AF0F1F088234AF03E
S1130A10EE0FFF1FBB1F661F771F881F91505040AA
S1130A20A9F79E3F510580F00C9468040C94B3041C
S1130A305F3FE4F3983ED4F3869577956795B79531
S1130A40F795E7959F5FC1F7FE2B880F911D96954B
S1130A50879597F908959F930E9459050F9007FC75
S1130A60EE5F0C948205990F0008550FAA0BE0E87D
S1130A70FEEF16161706E807F907C0F0121613065C
S1130A80E407F50798F0621B730B840B950B39F49C
S1130A900A2661F0232B242B252B21F408950A2602
S1130AA009F4A140A6958FEF811D811D08950C9432
S1130AB06E040E949804D8F3E894E0E0BB279F57A3
S1130AC0F0F02AED3FE049EC06C0EE0FBB0F661FC5
S1130AD0771F881F28F0B23A62077307840728F04B
S1130AE0B25A620B730B840BE3959A9572F78038B4
S1130AF030F49A95BB0F661F771F881FD2F7904872
S1130B000C949805EF93E0FF07C0A2EA2AED3FE0BA
S1130B1049EC5FEB0E942E030E947F040F90039424
S1130B2001FC9058E8E6F0E00C94A4059F3F31F0F6
S1130B30915020F4879577956795B795880F911D07
S1130B409695879597F908959F938F937F936F93C5
S1130B50FF93EF939B01AC010E94BE04EF91FF91C0
S1130B600E94B8052F913F914F915F910C94BE0460
S1130B70DF93CF931F930F93FF92EF92DF927B014A
S1130B808C01689406C0DA2EEF010E94D104FE01A4
S1130B90E894A5912591359145915591A6F3EF01DE
S1130BA00E942E03FE019701A801DA9469F7DF90F1
S1130BB0EF90FF900F911F91CF91DF91089597FBD4
S1130BC0072E16F4009407D077FD09D00E94F30590
S1130BD007FC05D03EF4909581959F4F089570953C
S1130BE061957F4F0895AA1BBB1B51E107C0AA1F43
S1130BF0BB1FA617B70710F0A61BB70B881F991FBA
S1130C005A95A9F780959095BC01CD010895F89463
S1050C10FFCF10
S1130C12010001FFFF320098046C0340021401003A
S9030000FC
