S010000050726F6A656374322E737265630B
S11300000C9443000C9460000C9460000C94600009
S11300100C9460000C9460000C9460000C942C010F
S11300200C9460000C9460000C9460000C946000CC
S11300300C9460000C9460000C9405010C94600016
S11300400C9460000C9460000C9460000C946000AC
S11300500C9460000C9460000C9460000C9460009C
S11300600C9460000C94600005A84CCDB2D44EB939
S11300703836A9020C50B9918688083CA6AAAA2A47
S1130080BE000000803F11241FBECFEFD8E0DEBFCA
S1130090CDBF11E0A0E0B1E0E6E9FDE002C00590CB
S11300A00D92A031B107D9F725E0A0E1B1E001C07C
S11300B01D92A23BB207E1F70E94FA000C94C90614
S11300C00C94000080E58CBD1DBC84E085B90895C6
S11300D082E084BD9091030197BD85BD85BB80936B
S11300E06E00089582E08093B00090910201909395
S11300F0B30094E09093B10087BB8093700008959F
S113010084B18C6284B98AB18AB98AB18C608AB9A3
S11301108BB1806E8BB90E9462000E9468000E94BD
S11301207200789408952A989F7090679EBD0DB4CC
S113013007FEFDCF8EBD0DB407FEFDCF2A9A0895AC
S1130140CF92DF92EF92FF9220E030E040EA50E459
S11301500E94450420E030EF4FE755E40E948005FB
S11301606B017C0120E030EF4FE755E40E947B05F2
S1130170181634F0C701B6010E94BE04CB0102C0B8
S11301808FEF9FE0FF90EF90DF90CF9008958091E4
S11301900301873851F481E090E09093010180934A
S11301A0000183E48093030121C0833451F482E08D
S11301B090E090930101809300018AE5809303010C
S11301C015C08A3551F482E090E090930101809348
S11301D0000183E48093030109C081E090E09093DF
S11301E001018093000187E880930301809103015A
S11301F087BD089582E990E090931F0180931E01CA
S11302000E9480000E94C903FFCF1F920F920FB675
S11302100F9211242F933F934F935F936F937F9388
S11302208F939F93AF93BF93EF93FF930E94F1013A
S11302300E9493005A9AFF91EF91BF91AF919F91C1
S11302408F917F916F915F914F913F912F910F907B
S11302500FBE0F901F9018951F920F920FB60F921A
S113026011242F933F934F935F936F937F938F93B7
S11302709F93AF93BF93EF93FF934F990AC08091DD
S11302801A0190911B01019690931B0180931A010E
S113029008C0109215011092140110921B011092C3
S11302A01A014E990AC08091180190911901019682
S11302B0909319018093180108C0109213011092B1
S11302C0120110921901109218014D990AC08091DF
S11302D016019091170101969093170180931601CE
S11302E008C010921101109210011092170110927F
S11302F0160180911A0190911B010A9794F0809144
S1130300140190911501892B11F40E94D4011092CB
S11303101B0110921A0181E090E0909315018093E3
S1130320140180911801909119010A979CF0809111
S1130330120190911301892B19F45B980E94C70054
S1130340109219011092180181E090E0909313012A
S11303508093120180911601909117010A979CF0E5
S11303608091100190911101892B11F40E947C025B
S11303705B9A109217011092160181E090E090931D
S1130380110180931001FF91EF91BF91AF919F9163
S11303908F917F916F915F914F913F912F910F902A
S11303A00FBE0F901F90189580911C0190911D0114
S11303B0019683709078992324F401978C6F9F6F32
S11303C0019690931D0180931C01880F991FFC01D5
S11303D0E85FFE4F808191819093B1058093B005D1
S11303E008952091040130910501809100019091BC
S11303F00101820F931F62E970E00E94A1069093AD
S1130400050180930401880F991FE091B005F091D4
S1130410B105E80FF91F808191810895CF92DF9291
S1130420EF92FF920F931F93CF93DF9360911E017E
S113043070911F01072E000C880B990B0E94EF048A
S11304406B017C018091060190910701BC01990F19
S1130450880B990B0E94EF049B01AC01C701B60104
S11304600E94800520E030E048EC52E40E944504FC
S11304700E94B704EB011C161D06B4F40CE814E04A
S1130480660F771FCB0184579B4F7C0160E070E0BF
S113049080EA90E40E94A000F801819391938F0177
S11304A0EE15FF0599F702C0C0E0D0E080911E016F
S11304B090911F01C817D907B4F48E01000F111FC2
S11304C004571B4F60E070E0CB010E94A000F801CC
S11304D0819391938F01219680911E0190911F0128
S11304E0C817D9077CF3DF91CF911F910F91FF902B
S11304F0EF90DF90CF9008958091060190910701CD
S11305000A966EE670E00E94A1069093070180931C
S113051006010E940E0208954F925F926F927F929D
S1130520AF92BF92CF92DF92EF92FF920F931F93FD
S1130530CF93DF93A0901E01B0901F01BB201CF449
S11305402FEFA21AB20AB594A794B5010B2C000C94
S1130550880B990B0E94EF049B01AC0160E070E0F2
S113056080EA90E40E9445042B013C019B01AC010C
S113057060E070E0CB010E94D8036B017C01E501CF
S113058021961C161D06DCF408E613E0C501880F4D
S1130590991FFC01E659FC4F5F01A3019201C701B9
S11305A0B6010E94D9036B017C010E94A000F801EE
S11305B0819391938F01EA15FB0579F702C0C0E09E
S11305C0D0E080911E0190911F010197C817D907AF
S11305D0E4F48E01000F111F08591C4FA30192016E
S11305E0C701B6010E94D8036B017C010E94A000E0
S11305F0F801819391938F01219680911E0190912E
S11306001F010197C817D9074CF3DF91CF911F91B0
S11306100F91FF90EF90DF90CF90BF90AF907F90BD
S11306206F905F904F9008958F929F92AF92BF9278
S1130630CF92DF92EF92FF920F931F93CF93DF93AA
S1130640C0911E01D0911F01BE0161507109072E96
S1130650000C880B990B0E94EF049B01AC0160E035
S113066070E080EA90E40E9445044B015C019B0128
S1130670AC0160E070E0CB010E94D8036B017C0107
S11306801C161D06D4F404E412E0C0E0D0E0A50179
S11306909401C701B6010E94D9036B017C010E9439
S11306A0A000F801819391938F01219680911E01FE
S11306B090911F01C817D90754F3DF91CF911F916F
S11306C00F91FF90EF90DF90CF90BF90AF909F90ED
S11306D08F9008958F929F92AF92BF92CF92DF92A4
S11306E0EF92FF920F931F93CF93DF93C0911E015C
S11306F0D0911F01BE010D2E000C880B990B0E9496
S1130700EF049B01AC016BED7FE089EC90E40E9467
S113071045044B015C016B017C01F7FAF094F7F896
S1130720F0941C161D0644F500E211E0C0E0D0E090
S1130730A5019401C701B6010E94D9036B017C0194
S11307400E94ED0520E030E040E250E40E94800584
S113075020E030E040E250E40E94D9030E94A0006F
S1130760F801819391938F01219680911E019091BC
S11307701F01C817D907E4F2DF91CF911F910F91A0
S1130780FF90EF90DF90CF90BF90AF909F908F90AD
S113079008950E940E020E948C020E9414030E947B
S11307A06A038CE894E09093B1058093B0050895B2
S11307B05058BB27AA270E94F0030C9441050E94BD
S11307C0330538F00E943A0520F039F49F3F19F4BC
S11307D026F40C9430050EF4E095E7FB0C942A05FE
S11307E0E92F0E94520558F3BA176207730784076A
S11307F0950720F079F4A6F50C9474050EF4E095B1
S11308000B2EBA2FA02D0B01B90190010C01CA01C6
S1130810A0011124FF27591B99F0593F50F4503E71
S113082068F11A16F040A22F232F342F4427585F63
S1130830F3CF469537952795A795F0405395C9F77B
S11308407EF41F16BA0B620B730B840BBAF0915033
S1130850A1F0FF0FBB1F661F771F881FC2F70EC0D2
S1130860BA0F621F731F841F48F4879577956795A5
S1130870B795F7959E3F08F0B0CF9395880F08F091
S11308809927EE0F9795879508950E9459040C9423
S113089041050E943A0558F00E94330540F029F4BE
S11308A05F3F29F00C942A0551110C9475050C94A2
S11308B030050E94520568F39923B1F3552391F34F
S11308C0951B550BBB27AA2762177307840738F0BB
S11308D09F5F5F4F220F331F441FAA1FA9F335D018
S11308E00E2E3AF0E0E832D091505040E695001CCC
S11308F0CAF72BD0FE2F29D0660F771F881FBB1F86
S1130900261737074807AB07B0E809F0BB0B802D63
S1130910BF01FF2793585F4F3AF09E3F510578F08F
S11309200C942A050C9475055F3FE4F3983ED4F3C8
S1130930869577956795B795F7959F5FC9F7880F63
S1130940911D9695879597F90895E1E0660F771FB5
S1130950881FBB1F621773078407BA0720F0621B46
S1130960730B840BBA0BEE1F88F7E09508950E9471
S1130970BE046894B1110C94750508950E945A053B
S113098088F09F5798F0B92F9927B751B0F0E1F04C
S1130990660F771F881F991F1AF0BA95C9F714C0FC
S11309A0B13091F00E947405B1E008950C9474057F
S11309B0672F782F8827B85F39F0B93FCCF3869535
S11309C077956795B395D9F73EF490958095709592
S11309D061957F4F8F4F9F4F0895E89409C097FB0F
S11309E03EF490958095709561957F4F8F4F9F4F02
S11309F09923A9F0F92F96E9BB279395F695879546
S1130A0077956795B795F111F8CFFAF4BB0F11F408
S1130A1060FF1BC06F5F7F4F8F4F9F4F16C08823AF
S1130A2011F096E911C0772321F09EE8872F762FE5
S1130A3005C0662371F096E8862F70E060E02AF026
S1130A409A95660F771F881FDAF7880F9695879512
S1130A5097F9089597F99F6780E870E060E008953A
S1130A609FEF80EC089500240A94161617061806C2
S1130A700906089500240A9412161306140605069E
S1130A800895092E0394000C11F4882352F0BB0F2F
S1130A9040F4BF2B11F460FF04C06F5F7F4F8F4F92
S1130AA09F4F089557FD9058440F551F59F05F3FCD
S1130AB071F04795880F97FB991F61F09F3F79F07C
S1130AC087950895121613061406551FF2CF4695FE
S1130AD0F1DF08C0161617061806991FF1CF869580
S1130AE07105610508940895E894BB276627772764
S1130AF0CB0197F908950E94F50508F48FEF089546
S1130B000E9493050C9441050E94330538F00E941D
S1130B103A0520F0952311F00C942A050C94300525
S1130B2011240C9475050E94520570F3959FC1F32E
S1130B30950F50E0551F629FF001729FBB27F00D87
S1130B40B11D639FAA27F00DB11DAA1F649F6627DC
S1130B50B00DA11D661F829F2227B00DA11D621F2B
S1130B60739FB00DA11D621F839FA00D611D221FE5
S1130B70749F3327A00D611D231F849F600D211DC9
S1130B80822F762F6A2F11249F5750409AF0F1F04C
S1130B9088234AF0EE0FFF1FBB1F661F771F881FB5
S1130BA091505040A9F79E3F510580F00C942A05BE
S1130BB00C9475055F3FE4F3983ED4F386957795DE
S1130BC06795B795F795E7959F5FC1F7FE2B880F5B
S1130BD0911D9695879597F908959F930E941B06FA
S1130BE00F9007FCEE5F0C944406990F0008550F14
S1130BF0AA0BE0E8FEEF16161706E807F907C0F09F
S1130C0012161306E407F50798F0621B730B840BA6
S1130C10950B39F40A2661F0232B242B252B21F480
S1130C2008950A2609F4A140A6958FEF811D811D20
S1130C3008950C9430050E945A05D8F3E894E0E036
S1130C40BB279F57F0F02AED3FE049EC06C0EE0FBA
S1130C50BB0F661F771F881F28F0B23A620773071D
S1130C60840728F0B25A620B730B840BE3959A95B0
S1130C7072F7803830F49A95BB0F661F771F881F70
S1130C80D2F790480C945A06EF93E0FF07C0A2EA0B
S1130C902AED3FE049EC5FEB0E94F0030E9441051E
S1130CA00F90039401FC9058E8E6F0E00C9466067B
S1130CB09F3F31F0915020F4879577956795B795CC
S1130CC0880F911D9695879597F908959F938F9313
S1130CD07F936F93FF93EF939B01AC010E94800578
S1130CE0EF91FF910E947A062F913F914F915F916E
S1130CF00C948005DF93CF931F930F93FF92EF9291
S1130D00DF927B018C01689406C0DA2EEF010E9409
S1130D109305FE01E894A59125913591459155914E
S1130D20A6F3EF010E94F003FE019701A801DA94F3
S1130D3069F7DF90EF90FF900F911F91CF91DF91B2
S1130D40089597FB072E16F4009407D077FD09D079
S1130D500E94B50607FC05D03EF4909581959F4FFF
S1130D600895709561957F4F0895AA1BBB1B51E1AF
S1130D7007C0AA1FBB1FA617B70710F0A61BB70B07
S1130D80881F991F5A95A9F780959095BC01CD01AC
S1090D900895F894FFCF62
S1130D9601003F01FFFF32008C0468034402200176
S9030000FC
