:100000000C9443000C9460000C9460000C9460000D
:100010000C9460000C9460000C9460000C948F01B0
:100020000C9460000C9460000C9460000C946000D0
:100030000C9460000C9460000C9469010C946000B6
:100040000C9460000C9460000C9460000C946000B0
:100050000C9460000C9460000C9460000C946000A0
:100060000C9460000C94600005A84CCDB2D44EB93D
:100070003836A9020C50B9918688083CA6AAAA2A4B
:10008000BE000000803F11241FBECFEFD8E0DEBFCE
:10009000CDBF11E0A0E0B1E0E8E5FEE002C00590D0
:1000A0000D92A031B107D9F725E0A0E1B1E001C080
:1000B0001D92A43BB207E1F70E9421010C942A078C
:1000C0000C94000087E880937A0010927B001092D5
:1000D0007C00089580E58CBD1DBC84E085B9089541
:1000E00082E084BD9091030197BD85BD85BB80935F
:1000F0006E00089582E08093B00090910201909389
:10010000B30094E09093B10087BB80937000089592
:1001100084B18C6284B98AB18AB98AB18C608AB997
:100120008BB1806E8BB90E946A000E9470000E94A1
:100130007A000E946200089589B18071089587EC69
:1001400080937A008FE094E00197F1F700C00000FF
:100150008091780090917900937096958795969507
:1001600087959093110180931001009711F481E01D
:1001700090E008952A989F7090679EBD0DB407FE89
:10018000FDCF8EBD0DB407FEFDCF2A9A0895CF9204
:10019000DF92EF92FF9220E030E040EA50E40E94CC
:1001A000A60420E030EF4FE755E40E94E1056B0123
:1001B0007C0120E030EF4FE755E40E94DC05181683
:1001C00034F0C701B6010E941F05CB0102C08FEFBA
:1001D0009FE0FF90EF90DF90CF9008958091030112
:1001E000873851F481E090E0909301018093000101
:1001F00083E48093030121C0833451F482E090E0D2
:1002000090930101809300018AE58093030115C05A
:100210008A3551F482E090E09093010180930001CF
:1002200083E48093030109C081E090E09093010191
:100230008093000187E8809303018091030187BDCB
:10024000089582E990E090932101809320010E941B
:1002500088000E942A0478940E949F00C49710F49A
:100260005A9A2FC00E949F00C49738F00E949F00A6
:100270008736910510F45A9824C00E949F00873653
:10028000910538F00E949F008A39910510F45A9A1E
:1002900018C00E949F008A39910538F00E949F0083
:1002A0008D3C910510F45A980CC00E949F008D3C23
:1002B000910538F00E949F008F3F910509F008F4E6
:1002C0005A9A0E949C00882311F05B9AC5CF5B98D4
:1002D000C3CF1F920F920FB60F9211242F933F930B
:1002E0004F935F936F937F938F939F93AF93BF933E
:1002F000EF93FF930E9452020E94BA00FF91EF9188
:10030000BF91AF919F918F917F916F915F914F912D
:100310003F912F910F900FBE0F901F9018951F9235
:100320000F920FB60F9211242F933F934F935F9329
:100330006F937F938F939F93AF93BF93EF93FF93AD
:100340004F990AC080911C0190911D0101969093D4
:100350001D0180931C0108C0109217011092160114
:1003600010921D0110921C014E990AC080911A0131
:1003700090911B01019690931B0180931A0108C074
:10038000109215011092140110921B0110921A0183
:100390004D990AC08091180190911901019690938E
:1003A00019018093180108C01092130110921201D4
:1003B000109219011092180180911C0190911D0159
:1003C0000A9794F08091160190911701892B11F4EE
:1003D0000E94350210921D0110921C0181E090E0F4
:1003E000909317018093160180911A0190911B013F
:1003F0000A9794F08091140190911501892B11F4C2
:100400000E94EE0010921B0110921A0181E090E010
:100410009093150180931401809118019091190116
:100420000A9794F08091120190911301892B11F495
:100430000E94DD02109219011092180181E090E0F3
:100440009093130180931201FF91EF91BF91AF91AF
:100450009F918F917F916F915F914F913F912F91DC
:100460000F900FBE0F901F90189580911E019091D4
:100470001F01019683709078992324F401978C6F63
:100480009F6F019690931F0180931E01880F991F03
:10049000FC01E85FFE4F808191819093B3058093CA
:1004A000B205089520910401309105018091000169
:1004B00090910101820F931F62E970E00E94020790
:1004C0009093050180930401880F991FE091B20574
:1004D000F091B305E80FF91F808191810895CF92C3
:1004E000DF92EF92FF920F931F93CF93DF93609170
:1004F000200170912101072E000C880B990B0E949E
:1005000050056B017C018091060190910701BC01AF
:10051000990F880B990B0E9450059B01AC01C701F4
:10052000B6010E94E10520E030E048EC52E40E9470
:10053000A6040E941805EB011C161D06B4F40EE873
:1005400014E0660F771FCB0182579B4F7C0160E060
:1005500070E080EA90E40E94C700F80181939193D3
:100560008F01EE15FF0599F702C0C0E0D0E0809141
:10057000200190912101C817D907B4F48E01000F12
:10058000111F02571B4F60E070E0CB010E94C700B3
:10059000F801819391938F01219680912001909190
:1005A0002101C817D9077CF3DF91CF911F910F91DB
:1005B000FF90EF90DF90CF90089580910601909189
:1005C00007010A966EE670E00E9402079093070109
:1005D000809306010E946F0208954F925F926F927E
:1005E0007F92AF92BF92CF92DF92EF92FF920F93E2
:1005F0001F93CF93DF93A0902001B0902101BB20E7
:100600001CF42FEFA21AB20AB594A794B5010B2CD3
:10061000000C880B990B0E9450059B01AC0160E017
:1006200070E080EA90E40E94A6042B013C019B014B
:10063000AC0160E070E0CB010E9439046B017C01E9
:10064000E50121961C161D06DCF40AE613E0C5013F
:10065000880F991FFC01E459FC4F5F01A30192012F
:10066000C701B6010E943A046B017C010E94C700D9
:10067000F801819391938F01EA15FB0579F702C088
:10068000C0E0D0E080912001909121010197C8172E
:10069000D907E4F48E01000F111F06591C4FA30166
:1006A0009201C701B6010E9439046B017C010E94CE
:1006B000C700F801819391938F01219680912001C9
:1006C000909121010197C817D9074CF3DF91CF9181
:1006D0001F910F91FF90EF90DF90CF90BF90AF9060
:1006E0007F906F905F904F9008958F929F92AF92FE
:1006F000BF92CF92DF92EF92FF920F931F93CF930F
:10070000DF93C0912001D0912101BE016150710998
:10071000072E000C880B990B0E9450059B01AC0121
:1007200060E070E080EA90E40E94A6044B015C0166
:100730009B01AC0160E070E0CB010E9439046B01C9
:100740007C011C161D06D4F406E412E0C0E0D0E0E3
:10075000A5019401C701B6010E943A046B017C0116
:100760000E94C700F801819391938F012196809197
:10077000200190912101C817D90754F3DF91CF913F
:100780001F910F91FF90EF90DF90CF90BF90AF90AF
:100790009F908F9008958F929F92AF92BF92CF9229
:1007A000DF92EF92FF920F931F93CF93DF93C0914D
:1007B0002001D0912101BE010D2E000C880B990B58
:1007C0000E9450059B01AC016BED7FE089EC90E449
:1007D0000E94A6044B015C016B017C01F7FAF094C6
:1007E000F7F8F0941C161D0644F502E211E0C0E093
:1007F000D0E0A5019401C701B6010E943A046B0143
:100800007C010E944E0620E030E040E250E40E946D
:10081000E10520E030E040E250E40E943A040E940A
:10082000C700F801819391938F0121968091200157
:1008300090912101C817D907E4F2DF91CF911F9160
:100840000F91FF90EF90DF90CF90BF90AF909F906F
:100850008F9008950E946F020E94ED020E9475031E
:100860000E94CB038EE894E09093B3058093B20589
:1008700008955058BB27AA270E9451040C94A20542
:100880000E94940538F00E949B0520F039F49F3FA8
:1008900019F426F40C9491050EF4E095E7FB0C9402
:1008A0008B05E92F0E94B30558F3BA176207730747
:1008B0008407950720F079F4A6F50C94D5050EF47D
:1008C000E0950B2EBA2FA02D0B01B90190010C0160
:1008D000CA01A0011124FF27591B99F0593F50F478
:1008E000503E68F11A16F040A22F232F342F4427D0
:1008F000585FF3CF469537952795A795F0405395C8
:10090000C9F77EF41F16BA0B620B730B840BBAF097
:100910009150A1F0FF0FBB1F661F771F881FC2F702
:100920000EC0BA0F621F731F841F48F48795779516
:100930006795B795F7959E3F08F0B0CF9395880FD0
:1009400008F09927EE0F9795879508950E94BA04AD
:100950000C94A2050E949B0558F00E94940540F05B
:1009600029F45F3F29F00C948B0551110C94D605A6
:100970000C9491050E94B30568F39923B1F35523B4
:1009800091F3951B550BBB27AA27621773078407A2
:1009900038F09F5F5F4F220F331F441FAA1FA9F338
:1009A00035D00E2E3AF0E0E832D091505040E69526
:1009B000001CCAF72BD0FE2F29D0660F771F881F87
:1009C000BB1F261737074807AB07B0E809F0BB0B7A
:1009D000802DBF01FF2793585F4F3AF09E3F51058E
:1009E00078F00C948B050C94D6055F3FE4F3983EA9
:1009F000D4F3869577956795B795F7959F5FC9F777
:100A0000880F911D9695879597F90895E1E0660FF7
:100A1000771F881FBB1F621773078407BA0720F070
:100A2000621B730B840BBA0BEE1F88F7E0950895D9
:100A30000E941F056894B1110C94D60508950E9478
:100A4000BB0588F09F5798F0B92F9927B751B0F0A0
:100A5000E1F0660F771F881F991F1AF0BA95C9F742
:100A600014C0B13091F00E94D505B1E008950C9406
:100A7000D505672F782F8827B85F39F0B93FCCF3B9
:100A8000869577956795B395D9F73EF490958095BF
:100A9000709561957F4F8F4F9F4F0895E89409C0DF
:100AA00097FB3EF490958095709561957F4F8F4FA1
:100AB0009F4F9923A9F0F92F96E9BB279395F695B7
:100AC000879577956795B795F111F8CFFAF4BB0F35
:100AD00011F460FF1BC06F5F7F4F8F4F9F4F16C099
:100AE000882311F096E911C0772321F09EE8872F23
:100AF000762F05C0662371F096E8862F70E060E0DF
:100B00002AF09A95660F771F881FDAF7880F969557
:100B1000879597F9089597F99F6780E870E060E0FE
:100B200008959FEF80EC089500240A941616170686
:100B300018060906089500240A94121613061406CE
:100B400005060895092E0394000C11F4882352F031
:100B5000BB0F40F4BF2B11F460FF04C06F5F7F4FE9
:100B60008F4F9F4F089557FD9058440F551F59F0D0
:100B70005F3F71F04795880F97FB991F61F09F3F8A
:100B800079F087950895121613061406551FF2CFB3
:100B90004695F1DF08C0161617061806991FF1CF03
:100BA00086957105610508940895E894BB2766272A
:100BB0007727CB0197F908950E94560608F48FEF26
:100BC00008950E94F4050C94A2050E94940538F043
:100BD0000E949B0520F0952311F00C948B050C943A
:100BE000910511240C94D6050E94B30570F3959FCE
:100BF000C1F3950F50E0551F629FF001729FBB2714
:100C0000F00DB11D639FAA27F00DB11DAA1F649FAF
:100C10006627B00DA11D661F829F2227B00DA11D62
:100C2000621F739FB00DA11D621F839FA00D611DE8
:100C3000221F749F3327A00D611D231F849F600D09
:100C4000211D822F762F6A2F11249F5750409AF032
:100C5000F1F088234AF0EE0FFF1FBB1F661F771FBE
:100C6000881F91505040A9F79E3F510580F00C9489
:100C70008B050C94D6055F3FE4F3983ED4F386953C
:100C800077956795B795F795E7959F5FC1F7FE2B29
:100C9000880F911D9695879597F908959F930E94C7
:100CA0007C060F9007FCEE5F0C94A506990F0008D8
:100CB000550FAA0BE0E8FEEF16161706E807F9072E
:100CC000C0F012161306E407F50798F0621B730BC9
:100CD000840B950B39F40A2661F0232B242B252B4A
:100CE00021F408950A2609F4A140A6958FEF811DED
:100CF000811D08950C9491050E94BB05D8F3E894DA
:100D0000E0E0BB279F57F0F02AED3FE049EC06C03A
:100D1000EE0FBB0F661F771F881F28F0B23A6207DD
:100D20007307840728F0B25A620B730B840BE395A8
:100D30009A9572F7803830F49A95BB0F661F771F2B
:100D4000881FD2F790480C94BB06EF93E0FF07C0D2
:100D5000A2EA2AED3FE049EC5FEB0E9451040E94B9
:100D6000A2050F90039401FC9058E8E6F0E00C9483
:100D7000C7069F3F31F0915020F48795779567958E
:100D8000B795880F911D9695879597F908959F932C
:100D90008F937F936F93FF93EF939B01AC010E941E
:100DA000E105EF91FF910E94DB062F913F914F915A
:100DB0005F910C94E105DF93CF931F930F93FF9204
:100DC000EF92DF927B018C01689406C0DA2EEF016E
:100DD0000E94F405FE01E894A59125913591459175
:100DE0005591A6F3EF010E945104FE019701A8015D
:100DF000DA9469F7DF90EF90FF900F911F91CF91F8
:100E0000DF91089597FB072E16F4009407D077FD25
:100E100009D00E94160707FC05D03EF490958195F5
:100E20009F4F0895709561957F4F0895AA1BBB1B36
:100E300051E107C0AA1FBB1FA617B70710F0A61BDA
:100E4000B70B881F991F5A95A9F780959095BC01FB
:080E5000CD010895F894FFCFD5
:100E580001003F87FFFF32008E046A034602220129
:00000001FF
