S010000050726F6A656374322E737265630B
S11300000C9443000C9455000C9455000C9455002A
S11300100C9455000C9455000C9455000C94550008
S11300200C9455000C9455000C9455000C945500F8
S11300300C9455000C9455000C94C8000C94550075
S11300400C9455000C9455000C9455000C945500D8
S11300500C9455000C9455000C9455000C945500C8
S11300600C9455000C94550005A84CCDB2D44EB94F
S11300703836A9020C50B9918688083CA6AAAA2A47
S1130080BE000000803F11241FBECFEFD8E0DEBFCA
S1130090CDBF27E0A0E0B1E001C01D92A134B207BA
S11300A0E1F70E9488000C944B040C94000080E556
S11300B08CBD1DBC84E085B9089582E084BD94E6BE
S11300C097BD85BD85BB80936E00089584B18C6215
S11300D084B9579A8AB18AB98BB180668BB90E9468
S11300E057000E945D0008950E94FF000E9459017C
S11300F00E9414010E948901789408951D9B04C0F4
S11301001E9B04C080E0089581E0089582E0089574
S11301100E9466000E9474000E947E00882311F0F1
S11301202F9AFACF2F98F8CF2A989F7090679EBD88
S11301300DB407FEFDCF8EBD0DB407FEFDCF2A9A88
S11301400895CF92DF92EF92FF9220E030E040EAF0
S113015050E40E94330220E030EF4FE755E40E9460
S11301602A036B017C0120E030EF4FE755E40E9445
S11301702503181634F0C701B6010E94A502CB016D
S113018002C08FEF9FE0FF90EF90DF90CF90089533
S11301901F920F920FB60F9211242F933F934F93F8
S11301A05F936F937F938F939F93AF93BF93EF93DB
S11301B0FF93E0910001F0E0EE0FFF1FEF5FFE4FB1
S11301C0808191810E949400809100018F5F883C1E
S11301D018F48093000102C010920001FF91EF9186
S11301E0BF91AF919F918F917F916F915F914F914B
S11301F03F912F910F900FBE0F901F901895E1EB38
S1130200F5E029E736E08FEF9FE081939193E217C1
S1130210F307D9F7E9E7F6E081E497E01192119248
S1130220E817F907D9F70895CF92DF92EF92FF927A
S11302300F931F93CF93DF93C1E2D4E00BEE14E04E
S11302400F2EFDECCF2EFCECDF2EFCE4EF2EFDEBAD
S1130250FF2EF02D2DEC3CEC4CE45DE3C701B60120
S11302600E94C7016B017C010E94A10089939993AC
S1130270C017D10779F7CBEED4E00FEA15E02DECE7
S11302803CEC4CE45DE3C701B6010E94C6016B017E
S11302907C010E94A10089939993C017D10779F733
S11302A0DF91CF911F910F91FF90EF90DF90CF904E
S11302B00895CF92DF92EF92FF920F931F93CF9303
S11302C0DF93C1E9D2E001E214E00F2EF3E4CF2E74
S11302D0F4EDDF2EFDECEF2EFCEBFF2EF02D23E4EE
S11302E034ED4DEC5CE3C701B6010E94C7016B011C
S11302F07C010E94A10089939993C017D10779F7D3
S1130300DF91CF911F910F91FF90EF90DF90CF90ED
S11303100895CF92DF92EF92FF920F931F93CF93A2
S1130320DF93C1E0D1E001E912E00F2EFDEFCF2E03
S1130330FDEADF2EE12CFDEBFF2EF02D2DEF3DEA43
S113034040E05DE3C701B6010E94C7016B017C0177
S11303500E94970320E030E040E250E40E942A0328
S113036020E030E040E250E40E94C7010E94A10076
S113037089939993C017D10709F7DF91CF911F9102
S11303800F91FF90EF90DF90CF9008955058BB27C6
S1130390AA270E94DE010C94EB020E94DD0238F0D1
S11303A00E94E40220F039F49F3F19F426F40C94DF
S11303B0DA020EF4E095E7FB0C94D402E92F0E94D4
S11303C0FC0258F3BA17620773078407950720F0F5
S11303D079F4A6F50C941E030EF4E0950B2EBA2FB7
S11303E0A02D0B01B90190010C01CA01A001112437
S11303F0FF27591B99F0593F50F4503E68F11A16E3
S1130400F040A22F232F342F4427585FF3CF469573
S113041037952795A795F0405395C9F77EF41F1695
S1130420BA0B620B730B840BBAF09150A1F0FF0F5F
S1130430BB1F661F771F881FC2F70EC0BA0F621F4B
S1130440731F841F48F4879577956795B795F7953B
S11304509E3F08F0B0CF9395880F08F09927EE0FD0
S11304609795879508950E9447020C94EB020E9489
S1130470E40258F00E94DD0240F029F45F3F29F0C5
S11304800C94D40251110C941F030C94DA020E94B0
S1130490FC0268F39923B1F3552391F3951B550B93
S11304A0BB27AA2762177307840738F09F5F5F4F43
S11304B0220F331F441FAA1FA9F335D00E2E3AF082
S11304C0E0E832D091505040E695001CCAF72BD09A
S11304D0FE2F29D0660F771F881FBB1F26173707EB
S11304E04807AB07B0E809F0BB0B802DBF01FF271D
S11304F093585F4F3AF09E3F510578F00C94D40224
S11305000C941F035F3FE4F3983ED4F386957795EC
S11305106795B795F7959F5FC9F7880F911D9695D5
S1130520879597F90895E1E0660F771F881FBB1F31
S1130530621773078407BA0720F0621B730B840BDE
S1130540BA0BEE1F88F7E09508950E94040388F023
S11305509F5798F0B92F9927B751B0F0E1F0660F83
S1130560771F881F991F1AF0BA95C9F714C0B130C4
S113057091F00E941E03B1E008950C941E03672FAE
S1130580782F8827B85F39F0B93FCCF386957795F3
S11305906795B395D9F73EF49095809570956195DC
S11305A07F4F8F4F9F4F089597F99F6780E870E0C2
S11305B060E008959FEF80EC089500240A941616D5
S11305C0170618060906089500240A94121613063D
S11305D0140605060895092E0394000C11F48823CB
S11305E052F0BB0F40F4BF2B11F460FF04C06F5FE7
S11305F07F4F8F4F9F4F089557FD9058440F551FBD
S113060059F05F3F71F04795880F97FB991F61F090
S11306109F3F79F087950895121613061406551F07
S1130620F2CF4695F1DF08C0161617061806991F73
S1130630F1CF86957105610508940895E894BB2768
S113064066277727CB0197F908950E949F0308F442
S11306508FEF08950E943D030C94EB020E94DD028B
S113066038F00E94E40220F0952311F00C94D40297
S11306700C94DA0211240C941F030E94FC0270F300
S1130680959FC1F3950F50E0551F629FF001729F33
S1130690BB27F00DB11D639FAA27F00DB11DAA1F42
S11306A0649F6627B00DA11D661F829F2227B00D8F
S11306B0A11D621F739FB00DA11D621F839FA00D1A
S11306C0611D221F749F3327A00D611D231F849F6A
S11306D0600D211D822F762F6A2F11249F575040C1
S11306E09AF0F1F088234AF0EE0FFF1FBB1F661F3C
S11306F0771F881F91505040A9F79E3F510580F005
S11307000C94D4020C941F035F3FE4F3983ED4F39B
S1130710869577956795B795F795E7959F5FC1F7A8
S1130720FE2B880F911D9695879597F908959F93B1
S11307300E94C5030F9007FCEE5F0C94EE03990F23
S11307400008550FAA0BE0E8FEEF16161706E80797
S1130750F907C0F012161306E407F50798F0621BB8
S1130760730B840B950B39F40A2661F0232B242B8D
S1130770252B21F408950A2609F4A140A6958FEFAC
S1130780811D811D08950C94DA020E940403D8F39C
S1130790E894E0E0BB279F57F0F02AED3FE049ECF6
S11307A006C0EE0FBB0F661F771F881F28F0B23AF2
S11307B062077307840728F0B25A620B730B840B29
S11307C0E3959A9572F7803830F49A95BB0F661FBB
S11307D0771F881FD2F790480C940404EF93E0FF2E
S11307E007C0A2EA2AED3FE049EC5FEB0E94DE017C
S11307F00E94EB020F90039401FC9058E8E6F0E0AD
S11308000C9410049F3F31F0915020F48795779514
S11308106795B795880F911D9695879597F90895D3
S11308209F938F937F936F93FF93EF939B01AC01FF
S11308300E942A03EF91FF910E9424042F913F917B
S11308404F915F910C942A03DF93CF931F930F93DF
S1130850FF92EF92DF927B018C01689406C0DA2E3E
S1130860EF010E943D03FE01E894A5912591359185
S113087045915591A6F3EF010E94DE01FE01970117
S1130880A801DA9469F7DF90EF90FF900F911F9120
S10D0890CF91DF910895F894FFCF93
S9030000FC
