:100000000C9443000C9460000C9460000C9460000D
:100010000C9460000C9460000C9460000C94070138
:100020000C9460000C9460000C9460000C946000D0
:100030000C9460000C9460000C94E0000C94600040
:100040000C9460000C9460000C9460000C946000B0
:100050000C9460000C9460000C9460000C946000A0
:100060000C9460000C94600005A84CCDB2D44EB93D
:100070003836A9020C50B9918688083CA6AAAA2A4B
:10008000BE000000803F11241FBECFEFD8E0DEBFCE
:10009000CDBF11E0A0E0B1E0ECE4FDE002C00590CE
:1000A0000D92A031B107D9F725E0A0E1B1E001C080
:1000B0001D92A23DB207E1F70E94D5000C94A40660
:1000C0000C94000080E58CBD1DBC84E085B90895CA
:1000D00082E084BD9091030197BD85BD85BB80936F
:1000E0006E00089582E08093B00090910201909399
:1000F000B30094E09093B10087BB809370000895A3
:1001000084B18C6284B98AB18AB98AB18C608AB9A7
:100110008BB1806E8BB90E9462000E9468000E94C1
:100120007200789408952A989F7090679EBD0DB4D0
:1001300007FEFDCF8EBD0DB407FEFDCF2A9A0895B0
:10014000CF92DF92EF92FF9220E030E040EA50E45D
:100150000E94200420E030EF4FE755E40E945B0549
:100160006B017C0120E030EF4FE755E40E9456051B
:10017000181634F0C701B6010E949904CB0102C0E1
:100180008FEF9FE0FF90EF90DF90CF9008958091E8
:10019000000190910101019663E070E00E947C06ED
:1001A0009093010180930001089586E990E0909377
:1001B0001F0180931E010E9480000E94A403FFCFB4
:1001C0001F920F920FB60F9211242F933F934F93CC
:1001D0005F936F937F938F939F93AF93BF93EF93AF
:1001E000FF930E94CC010E9493005A9AFF91EF91D5
:1001F000BF91AF919F918F917F916F915F914F913F
:100200003F912F910F900FBE0F901F9018951F9246
:100210000F920FB60F9211242F933F934F935F933A
:100220006F937F938F939F93AF93BF93EF93FF93BE
:100230004F990AC080911A0190911B0101969093E9
:100240001B0180931A0108C010921501109214012D
:1002500010921B0110921A014E990AC08091180148
:10026000909119010196909319018093180108C08B
:10027000109213011092120110921901109218019C
:100280004D990AC0809116019091170101969093A3
:1002900017018093160108C01092110110921001ED
:1002A000109217011092160180911A0190911B0172
:1002B0000A9794F08091140190911501892B11F403
:1002C0000E94AF0110921B0110921A0181E090E090
:1002D0009093150180931401809118019091190158
:1002E0000A979CF08091120190911301892B19F4C7
:1002F0005B980E94C700109219011092180181E0CA
:1003000090E09093130180931201809116019091D7
:1003100017010A979CF08091100190911101892B8F
:1003200011F40E9457025B9A109217011092160165
:1003300081E090E09093110180931001FF91EF9183
:10034000BF91AF919F918F917F916F915F914F91ED
:100350003F912F910F900FBE0F901F901895809195
:100360001C0190911D01019683709078992324F4CB
:1003700001978C6F9F6F019690931D0180931C01D4
:10038000880F991FFC01E85FFE4F80819181909357
:10039000D1058093D0050895209104013091050185
:1003A0008091000190910101820F931F66E970E036
:1003B0000E947C069093050180930401880F991F89
:1003C000E091D005F091D105E80FF91F808191816E
:1003D0000895CF92DF92EF92FF920F931F93CF93E6
:1003E000DF9360911E0170911F01072E000C880B96
:1003F000990B0E94CA046B017C01809106019091C7
:100400000701BC01990F880B990B0E94CA049B013C
:10041000AC01C701B6010E945B0520E030E048EC6A
:1004200052E40E9420040E949204EB011C161D0657
:10043000B4F404EA14E0660F771FCB018C559B4F90
:100440007C0160E070E080EA90E40E94A000F80186
:10045000819391938F01EE15FF0599F702C0C0E0DB
:10046000D0E080911E0190911F01C817D907B4F404
:100470008E01000F111F0C551B4F60E070E0CB0187
:100480000E94A000F801819391938F0121968091A1
:100490001E0190911F01C817D9077CF3DF91CF91FE
:1004A0001F910F91FF90EF90DF90CF900895809172
:1004B0000601909107010A966EE670E00E947C06A4
:1004C00090930701809306010E94E90108954F92DD
:1004D0005F926F927F92AF92BF92CF92DF92EF9234
:1004E000FF920F931F93CF93DF93A0901E01B090C4
:1004F0001F01BB201CF42FEFA21AB20AB594A794D7
:10050000B5010B2C000C880B990B0E94CA049B01AF
:10051000AC0160E070E080EA90E40E9420042B01CE
:100520003C019B01AC0160E070E0CB010E94B30391
:100530006B017C01E50121961C161D06DCF408E721
:1005400013E0C501880F991FFC01E658FC4F5F01BD
:10055000A3019201C701B6010E94B4036B017C01A3
:100560000E94A000F801819391938F01EA15FB0589
:1005700079F702C0C0E0D0E080911E0190911F0188
:100580000197C817D907E4F48E01000F111F08580E
:100590001C4FA3019201C701B6010E94B3036B0176
:1005A0007C010E94A000F801819391938F01219614
:1005B00080911E0190911F010197C817D9074CF334
:1005C000DF91CF911F910F91FF90EF90DF90CF902F
:1005D000BF90AF907F906F905F904F9008958F92F3
:1005E0009F92AF92BF92CF92DF92EF92FF920F93C2
:1005F0001F93CF93DF93C0911E01D0911F01BE01C5
:1006000061507109072E000C880B990B0E94CA04D7
:100610009B01AC0160E070E080EA90E40E9420045D
:100620004B015C019B01AC0160E070E0CB010E94DA
:10063000B3036B017C011C161D06D4F40CE412E01C
:10064000C0E0D0E0A5019401C701B6010E94B40347
:100650006B017C010E94A000F801819391938F01AE
:10066000219680911E0190911F01C817D90754F35C
:10067000DF91CF911F910F91FF90EF90DF90CF907E
:10068000BF90AF909F908F9008958F929F92AF925E
:10069000BF92CF92DF92EF92FF920F931F93CF936F
:1006A000DF93C0911E01D0911F01BE010D2E000CE1
:1006B000880B990B0E94CA049B01AC016BED7FE093
:1006C00089EC90E40E9420044B015C016B017C01E9
:1006D000F7FAF094F7F8F0941C161D0644F500E2C2
:1006E00011E0C0E0D0E0A5019401C701B6010E946D
:1006F000B4036B017C010E94C80520E030E040E2B9
:1007000050E40E945B0520E030E040E250E40E94AB
:10071000B4030E94A000F801819391938F01219668
:1007200080911E0190911F01C817D907E4F2DF9153
:10073000CF911F910F91FF90EF90DF90CF90BF90DE
:10074000AF909F908F9008950E94E9010E946702E8
:100750000E94EF020E94450384EA94E09093D10541
:100760008093D00508955058BB27AA270E94CB0339
:100770000C941C050E940E0538F00E94150520F00F
:1007800039F49F3F19F426F40C940B050EF4E09510
:10079000E7FB0C940505E92F0E942D0558F3BA17C5
:1007A000620773078407950720F079F4A6F50C9487
:1007B0004F050EF4E0950B2EBA2FA02D0B01B901B9
:1007C00090010C01CA01A0011124FF27591B99F0C7
:1007D000593F50F4503E68F11A16F040A22F232FD3
:1007E000342F4427585FF3CF469537952795A79523
:1007F000F0405395C9F77EF41F16BA0B620B730BCA
:10080000840BBAF09150A1F0FF0FBB1F661F771F3A
:10081000881FC2F70EC0BA0F621F731F841F48F4EF
:10082000879577956795B795F7959E3F08F0B0CF78
:100830009395880F08F09927EE0F9795879508955F
:100840000E9434040C941C050E94150558F00E9467
:100850000E0540F029F45F3F29F00C940505511175
:100860000C9450050C940B050E942D0568F39923F8
:10087000B1F3552391F3951B550BBB27AA2762179C
:100880007307840738F09F5F5F4F220F331F441FA9
:10089000AA1FA9F335D00E2E3AF0E0E832D09150DD
:1008A0005040E695001CCAF72BD0FE2F29D0660FCA
:1008B000771F881FBB1F261737074807AB07B0E80D
:1008C00009F0BB0B802DBF01FF2793585F4F3AF013
:1008D0009E3F510578F00C9405050C9450055F3F40
:1008E000E4F3983ED4F3869577956795B795F79599
:1008F0009F5FC9F7880F911D9695879597F9089581
:10090000E1E0660F771F881FBB1F6217730784071C
:10091000BA0720F0621B730B840BBA0BEE1F88F72B
:10092000E09508950E9499046894B1110C945005C3
:1009300008950E94350588F09F5798F0B92F9927A0
:10094000B751B0F0E1F0660F771F881F991F1AF0BA
:10095000BA95C9F714C0B13091F00E944F05B1E0CB
:1009600008950C944F05672F782F8827B85F39F0CA
:10097000B93FCCF3869577956795B395D9F73EF453
:1009800090958095709561957F4F8F4F9F4F0895FB
:10099000E89409C097FB3EF4909580957095619519
:1009A0007F4F8F4F9F4F9923A9F0F92F96E9BB27CF
:1009B0009395F695879577956795B795F111F8CF4B
:1009C000FAF4BB0F11F460FF1BC06F5F7F4F8F4FB6
:1009D0009F4F16C0882311F096E911C0772321F0AC
:1009E0009EE8872F762F05C0662371F096E8862F44
:1009F00070E060E02AF09A95660F771F881FDAF79B
:100A0000880F9695879597F9089597F99F6780E8DD
:100A100070E060E008959FEF80EC089500240A9450
:100A20001616170618060906089500240A941216C9
:100A30001306140605060895092E0394000C11F4FC
:100A4000882352F0BB0F40F4BF2B11F460FF04C0A9
:100A50006F5F7F4F8F4F9F4F089557FD9058440F02
:100A6000551F59F05F3F71F04795880F97FB991F0D
:100A700061F09F3F79F087950895121613061406CA
:100A8000551FF2CF4695F1DF08C016161706180657
:100A9000991FF1CF86957105610508940895E89432
:100AA000BB2766277727CB0197F908950E94D005C9
:100AB00008F48FEF08950E946E050C941C050E94A7
:100AC0000E0538F00E94150520F0952311F00C94C6
:100AD00005050C940B0511240C9450050E942D055E
:100AE00070F3959FC1F3950F50E0551F629FF00181
:100AF000729FBB27F00DB11D639FAA27F00DB11D9A
:100B0000AA1F649F6627B00DA11D661F829F222722
:100B1000B00DA11D621F739FB00DA11D621F839FA9
:100B2000A00D611D221F749F3327A00D611D231F7F
:100B3000849F600D211D822F762F6A2F11249F57CD
:100B400050409AF0F1F088234AF0EE0FFF1FBB1FD0
:100B5000661F771F881F91505040A9F79E3F51058F
:100B600080F00C9405050C9450055F3FE4F3983E2B
:100B7000D4F3869577956795B795F795E7959F5F39
:100B8000C1F7FE2B880F911D9695879597F90895CB
:100B90009F930E94F6050F9007FCEE5F0C941F06D2
:100BA000990F0008550FAA0BE0E8FEEF161617067E
:100BB000E807F907C0F012161306E407F50798F0E6
:100BC000621B730B840B950B39F40A2661F0232BFF
:100BD000242B252B21F408950A2609F4A140A6957B
:100BE0008FEF811D811D08950C940B050E94350522
:100BF000D8F3E894E0E0BB279F57F0F02AED3FE000
:100C000049EC06C0EE0FBB0F661F771F881F28F048
:100C1000B23A62077307840728F0B25A620B730B6B
:100C2000840BE3959A9572F7803830F49A95BB0F50
:100C3000661F771F881FD2F790480C943506EF93F4
:100C4000E0FF07C0A2EA2AED3FE049EC5FEB0E941B
:100C5000CB030E941C050F90039401FC9058E8E61A
:100C6000F0E00C9441069F3F31F0915020F48795BD
:100C700077956795B795880F911D9695879597F904
:100C800008959F938F937F936F93FF93EF939B01AF
:100C9000AC010E945B05EF91FF910E9455062F91D8
:100CA0003F914F915F910C945B05DF93CF931F931E
:100CB0000F93FF92EF92DF927B018C01689406C044
:100CC000DA2EEF010E946E05FE01E894A5912591B0
:100CD000359145915591A6F3EF010E94CB03FE019A
:100CE0009701A801DA9469F7DF90EF90FF900F91D8
:100CF0001F91CF91DF91089597FB072E16F4009472
:100D000007D077FD09D00E94900607FC05D03EF47D
:100D1000909581959F4F0895709561957F4F0895A7
:100D2000AA1BBB1B51E107C0AA1FBB1FA617B70711
:100D300010F0A61BB70B881F991F5A95A9F780952D
:0C0D40009095BC01CD010895F894FFCF00
:100D4C0001003F01FFFF3200A40478034C02200194
:00000001FF
