:100000000C9443000C9460000C9460000C9460000D
:100010000C9460000C9460000C9460000C946000E0
:100020000C9460000C9460000C9460000C946000D0
:100030000C9460000C9460000C94D3000C9460004D
:100040000C9460000C9460000C9460000C946000B0
:100050000C9460000C9460000C9460000C946000A0
:100060000C9460000C94600005A84CCDB2D44EB93D
:100070003836A9020C50B9918688083CA6AAAA2A4B
:10008000BE000000803F11241FBECFEFD8E0DEBFCE
:10009000CDBF11E0A0E0B1E0E2EDF8E002C00590D4
:1000A0000D92A230B107D9F727E0A2E0B1E001C07C
:1000B0001D92A334B207E1F70E94C7000C946704B5
:1000C0000C94000080E58CBD1DBC84E085B90895CA
:1000D00082E084BD9091000197BD85BD85BB809372
:1000E0006E00089584B18C6284B9219885B18360D3
:1000F00085B90E9462000E94680078940895489B28
:1001000004C0499B04C080E0089581E0089582E026
:1001100008952A989F7090679EBD0DB407FEFDCF8D
:100120008EBD0DB407FEFDCF2A9A0895CF92DF92BF
:10013000EF92FF9220E030E040EA50E40E944F024C
:1001400020E030EF4FE755E40E9446036B017C014D
:1001500020E030EF4FE755E40E944103181634F0D9
:10016000C701B6010E94C102CB0102C08FEF9FE020
:10017000FF90EF90DF90CF9008950E940A010E94B7
:1001800075010E9430010E94A501789408950E9493
:1001900072000E94BD000E947F00882311F02F9AF8
:1001A000FACF2F98F8CF1F920F920FB60F9211240B
:1001B0002F933F934F935F936F937F938F939F936F
:1001C000AF93BF93EF93FF93E0910201F0E0EE0F46
:1001D000FF1FED5FFE4F808191810E948900809119
:1001E00002018F5F883C18F48093020102C01092D4
:1001F0000201FF91EF91BF91AF919F918F917F91FC
:100200006F915F914F913F912F910F900FBE0F9083
:100210001F9018950F931F93CF93DF93C3EBD5E0F7
:100220000BE716E060E070E080EA90E40E94960040
:1002300089939993C017D107A9F7CBE7D6E003E4D8
:1002400017E060E070E0CB010E94960089939993DB
:10025000C017D107B1F7DF91CF911F910F9108958A
:10026000CF92DF92EF92FF920F931F93CF93DF9382
:10027000C3E2D4E00DEE14E00F2EFDECCF2EFCEC2B
:10028000DF2EFCE4EF2EFDEBFF2EF02D2DEC3CECF1
:100290004CE45DE3C701B6010E94E3016B017C0100
:1002A0000E94960089939993C017D10779F7CDEEF4
:1002B000D4E001EB15E02DEC3CEC4CE45DE3C70130
:1002C000B6010E94E2016B017C010E9496008993B5
:1002D0009993C017D10779F7DF91CF911F910F91B3
:1002E000FF90EF90DF90CF900895CF92DF92EF9242
:1002F000FF920F931F93CF93DF93C3E9D2E003E202
:1003000014E00F2EF3E4CF2EF4EDDF2EFDECEF2EF4
:10031000FCEBFF2EF02D23E434ED4DEC5CE3C70144
:10032000B6010E94E3016B017C010E949600899353
:100330009993C017D10779F7DF91CF911F910F9152
:10034000FF90EF90DF90CF900895CF92DF92EF92E1
:10035000FF920F931F93CF93DF93C3E0D1E003E9A4
:1003600012E00F2EFDEFCF2EFDEADF2EE12CFDEB8C
:10037000FF2EF02D2DEF3DEA40E05DE3C701B60111
:100380000E94E3016B017C010E94B30320E030E096
:1003900040E250E40E94460320E030E040E250E4B6
:1003A0000E94E3010E94960089939993C017D10798
:1003B00009F7DF91CF911F910F91FF90EF90DF90A0
:1003C000CF9008955058BB27AA270E94FA010C9499
:1003D00007030E94F90238F00E94000320F039F46C
:1003E0009F3F19F426F40C94F6020EF4E095E7FB17
:1003F0000C94F002E92F0E94180358F3BA17620711
:1004000073078407950720F079F4A6F50C943A0356
:100410000EF4E0950B2EBA2FA02D0B01B90190011F
:100420000C01CA01A0011124FF27591B99F0593F63
:1004300050F4503E68F11A16F040A22F232F342FAB
:100440004427585FF3CF469537952795A795F040F9
:100450005395C9F77EF41F16BA0B620B730B840B0E
:10046000BAF09150A1F0FF0FBB1F661F771F881FC6
:10047000C2F70EC0BA0F621F731F841F48F487951E
:1004800077956795B795F7959E3F08F0B0CF939510
:10049000880F08F09927EE0F9795879508950E9489
:1004A00063020C9407030E94000358F00E94F902B3
:1004B00040F029F45F3F29F00C94F00251110C94A4
:1004C0003B030C94F6020E94180368F39923B1F3DE
:1004D000552391F3951B550BBB27AA27621773076A
:1004E000840738F09F5F5F4F220F331F441FAA1FFE
:1004F000A9F335D00E2E3AF0E0E832D091505040BA
:10050000E695001CCAF72BD0FE2F29D0660F771F67
:10051000881FBB1F261737074807AB07B0E809F04D
:10052000BB0B802DBF01FF2793585F4F3AF09E3FD2
:10053000510578F00C94F0020C943B035F3FE4F318
:10054000983ED4F3869577956795B795F7959F5F15
:10055000C9F7880F911D9695879597F90895E1E061
:10056000660F771F881FBB1F621773078407BA07C0
:1005700020F0621B730B840BBA0BEE1F88F7E0951B
:1005800008950E94200388F09F5798F0B92F99276B
:10059000B751B0F0E1F0660F771F881F991F1AF06E
:1005A000BA95C9F714C0B13091F00E943A03B1E096
:1005B00008950C943A03672F782F8827B85F39F095
:1005C000B93FCCF3869577956795B395D9F73EF407
:1005D00090958095709561957F4F8F4F9F4F0895AF
:1005E00097F99F6780E870E060E008959FEF80ECE6
:1005F000089500240A941616170618060906089589
:1006000000240A9412161306140605060895092EEE
:100610000394000C11F4882352F0BB0F40F4BF2B5D
:1006200011F460FF04C06F5F7F4F8F4F9F4F08959D
:1006300057FD9058440F551F59F05F3F71F0479593
:10064000880F97FB991F61F09F3F79F08795089578
:10065000121613061406551FF2CF4695F1DF08C097
:10066000161617061806991FF1CF869571056105B4
:1006700008940895E894BB2766277727CB0197F95C
:1006800008950E94BB0308F48FEF08950E94590358
:100690000C9407030E94F90238F00E94000320F036
:1006A000952311F00C94F0020C94F60211240C9492
:1006B0003B030E94180370F3959FC1F3950F50E020
:1006C000551F629FF001729FBB27F00DB11D639F04
:1006D000AA27F00DB11DAA1F649F6627B00DA11DAA
:1006E000661F829F2227B00DA11D621F739FB00D50
:1006F000A11D621F839FA00D611D221F749F3327C0
:10070000A00D611D231F849F600D211D822F762F58
:100710006A2F11249F5750409AF0F1F088234AF035
:10072000EE0FFF1FBB1F661F771F881F91505040A1
:10073000A9F79E3F510580F00C94F0020C943B0306
:100740005F3FE4F3983ED4F3869577956795B79528
:10075000F795E7959F5FC1F7FE2B880F911D969542
:10076000879597F908959F930E94E1030F9007FCE6
:10077000EE5F0C940A04990F0008550FAA0BE0E8ED
:10078000FEEF16161706E807F907C0F01216130653
:10079000E407F50798F0621B730B840B950B39F493
:1007A0000A2661F0232B242B252B21F408950A26F9
:1007B00009F4A140A6958FEF811D811D08950C9429
:1007C000F6020E942003D8F3E894E0E0BB279F578D
:1007D000F0F02AED3FE049EC06C0EE0FBB0F661FBC
:1007E000771F881F28F0B23A62077307840728F042
:1007F000B25A620B730B840BE3959A9572F78038AB
:1008000030F49A95BB0F661F771F881FD2F7904868
:100810000C942004EF93E0FF07C0A2EA2AED3FE02A
:1008200049EC5FEB0E94FA010E9407030F900394CA
:1008300001FC9058E8E6F0E00C942C049F3F31F066
:10084000915020F4879577956795B795880F911DFE
:100850009695879597F908959F938F937F936F93BC
:10086000FF93EF939B01AC010E944603EF91FF9130
:100870000E9440042F913F914F915F910C94460349
:10088000DF93CF931F930F93FF92EF92DF927B0141
:100890008C01689406C0DA2EEF010E945903FE0114
:1008A000E894A5912591359145915591A6F3EF01D5
:1008B0000E94FA01FE019701A801DA9469F7DF901E
:1008C000EF90FF900F911F91CF91DF910895F894D1
:0208D000FFCF58
:0208D2006400C0
:00000001FF
