S010000050726F6A656374322E737265630B
S11300000C9434000C943E000C943E000C943E007E
S11300100C943E000C943E000C943E000C943E0064
S11300200C943E000C943E000C943E000C943E0054
S11300300C943E000C943E000C943E000C943E0044
S11300400C943E000C943E000C943E000C943E0034
S11300500C943E000C943E000C943E000C943E0024
S11300600C943E000C943E0011241FBECFEFD8E048
S1130070DEBFCDBF0E945B000C946E000C940000A8
S113008080E58CBD1DBC84E085B9089584B18C6283
S113009084B9219885B1836085B90E944000789421
S11300A00895489B04C0499B04C080E0089581E002
S11300B0089582E008950E9446000E94510088231A
S11300C0E1F30E9451008823E1F30E945100882348
S11300D0E1F30E9451008823E1F3EFCFF894FFCFBE
S9030000FC
