S010000050726F6A656374322E737265630B
S11300000C9443000C9460000C9460000C94600009
S11300100C9460000C9460000C9460000C946000DC
S11300200C9460000C9460000C9460000C946000CC
S11300300C9460000C9460000C94E5000C94600037
S11300400C9460000C9460000C9460000C946000AC
S11300500C9460000C9460000C9460000C9460009C
S11300600C9460000C94600005A84CCDB2D44EB939
S11300703836A9020C50B9918688083CA6AAAA2A47
S1130080BE000000803F11241FBECFEFD8E0DEBFCA
S1130090CDBF11E0A0E0B1E0E0ECFBE002C00590D0
S11300A00D92A630B107D9F725E0A6E0B1E001C072
S11300B01D92AA3BB207E1F70E94D4000C94DE051E
S11300C00C94000080E58CBD1DBC84E085B90895C6
S11300D082E084BD9091000197BD85BD85BB80936E
S11300E06E00089584B18C6284B95698529A8BB18B
S11300F0806C8BB90E9462000E9468007894089515
S11301004F990BC02FEF81EE94E021508040904036
S1130110E1F700C0000081E008954E990BC02FEF75
S113012081EE94E0215080409040E1F700C000004F
S113013082E008954D9B02C080E0089583E0089515
S11301402A989F7090679EBD0DB407FEFDCF8EBDAB
S11301500DB407FEFDCF2A9A0895CF92DF92EF9255
S1130160FF9220E030E040EA50E40E945A0320E08D
S113017030EF4FE755E40E9495046B017C0120E0C9
S113018030EF4FE755E40E949004181634F0C7018D
S1130190B6010E94D303CB0102C08FEF9FE0FF9012
S11301A0EF90DF90CF90089586E990E09093070157
S11301B0809306010E9472000E94DE020E94800069
S11301C08130E1F70E949101F9CF1F920F920FB68F
S11301D00F9211242F933F934F935F936F937F93C9
S11301E08F939F93AF93BF93EF93FF930E940B0161
S11301F00E94A000FF91EF91BF91AF919F918F91C9
S11302007F916F915F914F913F912F910F900FBE0E
S11302100F901F9018958091010190910201019611
S113022066E970E00E94B605909302018093010193
S1130230880F991FE091B805F091B905E80FF91FEF
S1130240808191810895CF92DF92EF92FF920F9374
S11302501F93CF93DF936091060170910701072EDE
S1130260000C880B990B0E9404046B017C018091A3
S1130270030190910401BC01990F880B990B0E9412
S113028004049B01AC01C701B6010E94950420E05F
S113029030E048EC52E40E945A030E94CC03EB0184
S11302A01C161D06B4F40CE814E0660F771FCB018E
S11302B084579B4F7C0160E070E080EA90E40E94E8
S11302C0AD00F801819391938F01EE15FF0599F725
S11302D002C0C0E0D0E08091060190910701C817E8
S11302E0D907B4F48E01000F111F04571B4F60E0AF
S11302F070E0CB010E94AD00F801819391938F01CE
S113030021968091060190910701C817D9077CF3C3
S1130310DF91CF911F910F91FF90EF90DF90CF90DD
S1130320089580910301909104010A966EE670E0AD
S11303300E94B60590930401809303010E94230157
S113034008954F925F926F927F92AF92BF92CF9235
S1130350DF92EF92FF920F931F93CF93DF93A090BE
S11303600601B0900701BB201CF42FEFA21AB20AB9
S1130370B594A794B5010B2C000C880B990B0E9423
S113038004049B01AC0160E070E080EA90E40E9408
S11303905A032B013C019B01AC0160E070E0CB01EE
S11303A00E94ED026B017C01E50121961C161D06DD
S11303B0DCF400E613E0C501880F991FFC01EE5937
S11303C0FC4F5F01A3019201C701B6010E94EE0236
S11303D06B017C010E94AD00F801819391938F0120
S11303E0EA15FB0579F702C0C0E0D0E08091060170
S11303F0909107010197C817D907E4F48E01000F03
S1130400111F005A1C4FA3019201C701B6010E949B
S1130410ED026B017C010E94AD00F8018193919380
S11304208F01219680910601909107010197C817C9
S1130430D9074CF3DF91CF911F910F91FF90EF906B
S1130440DF90CF90BF90AF907F906F905F904F9070
S113045008958F929F92AF92BF92CF92DF92EF92C4
S1130460FF920F931F93CF93DF93C0910601D09116
S11304700701BE0161507109072E000C880B990B0E
S11304800E9404049B01AC0160E070E080EA90E407
S11304900E945A034B015C019B01AC0160E070E0D7
S11304A0CB010E94ED026B017C011C161D06D4F4E5
S11304B004E312E0C0E0D0E0A5019401C701B60155
S11304C00E94EE026B017C010E94AD00F801819351
S11304D091938F0121968091060190910701C8178D
S11304E0D90754F3DF91CF911F910F91FF90EF90B3
S11304F0DF90CF90BF90AF909F908F9008958F9290
S11305009F92AF92BF92CF92DF92EF92FF920F939E
S11305101F93CF93DF93C0910601D0910701BE01D1
S11305200D2E000C880B990B0E9404049B01AC0156
S11305306BED7FE089EC90E40E945A034B015C016F
S11305406B017C01F7FAF094F7F8F0941C161D0681
S113055044F508E011E0C0E0D0E0A5019401C70132
S1130560B6010E94EE026B017C010E94020520E0AC
S113057030E040E250E40E94950420E030E040E2A4
S113058050E40E94EE020E94AD00F8018193919321
S11305908F0121968091060190910701C817D90710
S11305A0E4F2DF91CF911F910F91FF90EF90DF90D4
S11305B0CF90BF90AF909F908F9008950E94230199
S11305C00E94A1010E9429020E947F028CE894E00B
S11305D09093B9058093B80508955058BB27AA276E
S11305E00E9405030C9456040E94480438F00E94AB
S11305F04F0420F039F49F3F19F426F40C94450479
S11306000EF4E095E7FB0C943F04E92F0E94670485
S113061058F3BA17620773078407950720F079F433
S1130620A6F50C9489040EF4E0950B2EBA2FA02D98
S11306300B01B90190010C01CA01A0011124FF278B
S1130640591B99F0593F50F4503E68F11A16F04086
S1130650A22F232F342F4427585FF3CF4695379585
S11306602795A795F0405395C9F77EF41F16BA0B4A
S1130670620B730B840BBAF09150A1F0FF0FBB1FF8
S1130680661F771F881FC2F70EC0BA0F621F731F41
S1130690841F48F4879577956795B795F7959E3F9E
S11306A008F0B0CF9395880F08F09927EE0F97952F
S11306B0879508950E946E030C9456040E944F047B
S11306C058F00E94480440F029F45F3F29F00C944C
S11306D03F0451110C948A040C9445040E9467044D
S11306E068F39923B1F3552391F3951B550BBB275D
S11306F0AA2762177307840738F09F5F5F4F220FA2
S1130700331F441FAA1FA9F335D00E2E3AF0E0E898
S113071032D091505040E695001CCAF72BD0FE2FE2
S113072029D0660F771F881FBB1F26173707480776
S1130730AB07B0E809F0BB0B802DBF01FF2793582E
S11307405F4F3AF09E3F510578F00C943F040C94AF
S11307508A045F3FE4F3983ED4F3869577956795D2
S1130760B795F7959F5FC9F7880F911D9695879563
S113077097F90895E1E0660F771F881FBB1F621782
S113078073078407BA0720F0621B730B840BBA0B40
S1130790EE1F88F7E09508950E94D3036894B11181
S11307A00C948A0408950E946F0488F09F5798F06F
S11307B0B92F9927B751B0F0E1F0660F771F881F62
S11307C0991F1AF0BA95C9F714C0B13091F00E947C
S11307D08904B1E008950C948904672F782F882741
S11307E0B85F39F0B93FCCF3869577956795B395A3
S11307F0D9F73EF490958095709561957F4F8F4F12
S11308009F4F0895E89409C097FB3EF49095809516
S1130810709561957F4F8F4F9F4F9923A9F0F92FC2
S113082096E9BB279395F695879577956795B79540
S1130830F111F8CFFAF4BB0F11F460FF1BC06F5F26
S11308407F4F8F4F9F4F16C0882311F096E911C038
S1130850772321F09EE8872F762F05C0662371F059
S113086096E8862F70E060E02AF09A95660F771F6D
S1130870881FDAF7880F9695879597F9089597F961
S11308809F6780E870E060E008959FEF80EC089532
S113089000240A941616170618060906089500245B
S11308A00A9412161306140605060895092E0394D5
S11308B0000C11F4882352F0BB0F40F4BF2B11F449
S11308C060FF04C06F5F7F4F8F4F9F4F089557FDA8
S11308D09058440F551F59F05F3F71F04795880FAA
S11308E097FB991F61F09F3F79F087950895121641
S11308F013061406551FF2CF4695F1DF08C01616ED
S113090017061806991FF1CF86957105610508949D
S11309100895E894BB2766277727CB0197F90895B4
S11309200E940A0508F48FEF08950E94A8040C940D
S113093056040E94480438F00E944F0420F0952386
S113094011F00C943F040C94450411240C948A0473
S11309500E94670470F3959FC1F3950F50E0551FF3
S1130960629FF001729FBB27F00DB11D639FAA2700
S1130970F00DB11DAA1F649F6627B00DA11D661F4F
S1130980829F2227B00DA11D621F739FB00DA11D70
S1130990621F839FA00D611D221F749F3327A00D2A
S11309A0611D231F849F600D211D822F762F6A2FC6
S11309B011249F5750409AF0F1F088234AF0EE0F2B
S11309C0FF1FBB1F661F771F881F91505040A9F758
S11309D09E3F510580F00C943F040C948A045F3FC1
S11309E0E4F3983ED4F3869577956795B795F79594
S11309F0E7959F5FC1F7FE2B880F911D969587950C
S1130A0097F908959F930E9430050F9007FCEE5FBD
S1130A100C945905990F0008550FAA0BE0E8FEEF56
S1130A2016161706E807F907C0F012161306E407AE
S1130A30F50798F0621B730B840B950B39F40A26A7
S1130A4061F0232B242B252B21F408950A2609F485
S1130A50A140A6958FEF811D811D08950C94450436
S1130A600E946F04D8F3E894E0E0BB279F57F0F0AE
S1130A702AED3FE049EC06C0EE0FBB0F661F771F5F
S1130A80881F28F0B23A62077307840728F0B25A25
S1130A90620B730B840BE3959A9572F7803830F4EC
S1130AA09A95BB0F661F771F881FD2F790480C9446
S1130AB06F05EF93E0FF07C0A2EA2AED3FE049EC9F
S1130AC05FEB0E9405030E9456040F90039401FCFF
S1130AD09058E8E6F0E00C947B059F3F31F091508C
S1130AE020F4879577956795B795880F911D96950E
S1130AF0879597F908959F938F937F936F93FF93AF
S1130B00EF939B01AC010E949504EF91FF910E9429
S1130B108F052F913F914F915F910C949504DF9332
S1130B20CF931F930F93FF92EF92DF927B018C017F
S1130B30689406C0DA2EEF010E94A804FE01E8942E
S1130B40A5912591359145915591A6F3EF010E9408
S1130B500503FE019701A801DA9469F7DF90EF908D
S1130B60FF900F911F91CF91DF91089597FB072E6E
S1130B7016F4009407D077FD09D00E94CA0507FC3B
S1130B8005D03EF4909581959F4F08957095619599
S1130B907F4F0895AA1BBB1B51E107C0AA1FBB1FAF
S1130BA0A617B70710F0A61BB70B881F991F5A95F5
S1130BB0A9F780959095BC01CD010895F894FFCFD5
S1090BC084FFFF32000077
S9030000FC
